{
  "contractName": "UserRegistry",
  "abi": [
    {
      "anonymous": false,
      "inputs": [
        {
          "indexed": true,
          "internalType": "address",
          "name": "user",
          "type": "address"
        },
        {
          "indexed": false,
          "internalType": "string",
          "name": "name",
          "type": "string"
        }
      ],
      "name": "UserRegistered",
      "type": "event"
    },
    {
      "inputs": [
        {
          "internalType": "address",
          "name": "",
          "type": "address"
        }
      ],
      "name": "users",
      "outputs": [
        {
          "internalType": "string",
          "name": "name",
          "type": "string"
        },
        {
          "internalType": "string",
          "name": "data",
          "type": "string"
        }
      ],
      "stateMutability": "view",
      "type": "function",
      "constant": true
    },
    {
      "inputs": [
        {
          "internalType": "string",
          "name": "name",
          "type": "string"
        }
      ],
      "name": "registerUser",
      "outputs": [],
      "stateMutability": "nonpayable",
      "type": "function"
    },
    {
      "inputs": [
        {
          "internalType": "address",
          "name": "userAddress",
          "type": "address"
        }
      ],
      "name": "getUserData",
      "outputs": [
        {
          "internalType": "string",
          "name": "",
          "type": "string"
        },
        {
          "internalType": "string",
          "name": "",
          "type": "string"
        }
      ],
      "stateMutability": "view",
      "type": "function",
      "constant": true
    }
  ],
  "bytecode": "0x608060405234801561001057600080fd5b50610ae1806100206000396000f3fe608060405234801561001057600080fd5b50600436106100415760003560e01c8063704f1b9414610046578063a87430ba14610062578063ffc9896b14610093575b600080fd5b610060600480360381019061005b91906105ab565b6100c4565b005b61007c60048036038101906100779190610652565b6101ae565b60405161008a9291906106fe565b60405180910390f35b6100ad60048036038101906100a89190610652565b6102e2565b6040516100bb9291906106fe565b60405180910390f35b6000815111610108576040517f08c379a00000000000000000000000000000000000000000000000000000000081526004016100ff90610781565b60405180910390fd5b60008060003373ffffffffffffffffffffffffffffffffffffffff1673ffffffffffffffffffffffffffffffffffffffff16815260200190815260200160002090508181600001908161015b91906109b7565b503373ffffffffffffffffffffffffffffffffffffffff167f48cac28ad4dc618e15f4c2dd5e97751182f166de97b25618318b2112aa951a2f836040516101a29190610a89565b60405180910390a25050565b60006020528060005260406000206000915090508060000180546101d1906107d0565b80601f01602080910402602001604051908101604052809291908181526020018280546101fd906107d0565b801561024a5780601f1061021f5761010080835404028352916020019161024a565b820191906000526020600020905b81548152906001019060200180831161022d57829003601f168201915b50505050509080600101805461025f906107d0565b80601f016020809104026020016040519081016040528092919081815260200182805461028b906107d0565b80156102d85780601f106102ad576101008083540402835291602001916102d8565b820191906000526020600020905b8154815290600101906020018083116102bb57829003601f168201915b5050505050905082565b60608060008060008573ffffffffffffffffffffffffffffffffffffffff1673ffffffffffffffffffffffffffffffffffffffff1681526020019081526020016000209050806000018160010181805461033b906107d0565b80601f0160208091040260200160405190810160405280929190818152602001828054610367906107d0565b80156103b45780601f10610389576101008083540402835291602001916103b4565b820191906000526020600020905b81548152906001019060200180831161039757829003601f168201915b505050505091508080546103c7906107d0565b80601f01602080910402602001604051908101604052809291908181526020018280546103f3906107d0565b80156104405780601f1061041557610100808354040283529160200191610440565b820191906000526020600020905b81548152906001019060200180831161042357829003601f168201915b505050505090509250925050915091565b6000604051905090565b600080fd5b600080fd5b600080fd5b600080fd5b6000601f19601f8301169050919050565b7f4e487b7100000000000000000000000000000000000000000000000000000000600052604160045260246000fd5b6104b88261046f565b810181811067ffffffffffffffff821117156104d7576104d6610480565b5b80604052505050565b60006104ea610451565b90506104f682826104af565b919050565b600067ffffffffffffffff82111561051657610515610480565b5b61051f8261046f565b9050602081019050919050565b82818337600083830152505050565b600061054e610549846104fb565b6104e0565b90508281526020810184848401111561056a5761056961046a565b5b61057584828561052c565b509392505050565b600082601f83011261059257610591610465565b5b81356105a284826020860161053b565b91505092915050565b6000602082840312156105c1576105c061045b565b5b600082013567ffffffffffffffff8111156105df576105de610460565b5b6105eb8482850161057d565b91505092915050565b600073ffffffffffffffffffffffffffffffffffffffff82169050919050565b600061061f826105f4565b9050919050565b61062f81610614565b811461063a57600080fd5b50565b60008135905061064c81610626565b92915050565b6000602082840312156106685761066761045b565b5b60006106768482850161063d565b91505092915050565b600081519050919050565b600082825260208201905092915050565b60005b838110156106b957808201518184015260208101905061069e565b60008484015250505050565b60006106d08261067f565b6106da818561068a565b93506106ea81856020860161069b565b6106f38161046f565b840191505092915050565b6000604082019050818103600083015261071881856106c5565b9050818103602083015261072c81846106c5565b90509392505050565b7f4e616d652063616e6e6f7420626520656d707479000000000000000000000000600082015250565b600061076b60148361068a565b915061077682610735565b602082019050919050565b6000602082019050818103600083015261079a8161075e565b9050919050565b7f4e487b7100000000000000000000000000000000000000000000000000000000600052602260045260246000fd5b600060028204905060018216806107e857607f821691505b6020821081036107fb576107fa6107a1565b5b50919050565b60008190508160005260206000209050919050565b60006020601f8301049050919050565b600082821b905092915050565b6000600883026108637fffffffffffffffffffffffffffffffffffffffffffffffffffffffffffffffff82610826565b61086d8683610826565b95508019841693508086168417925050509392505050565b6000819050919050565b6000819050919050565b60006108b46108af6108aa84610885565b61088f565b610885565b9050919050565b6000819050919050565b6108ce83610899565b6108e26108da826108bb565b848454610833565b825550505050565b600090565b6108f76108ea565b6109028184846108c5565b505050565b5b818110156109265761091b6000826108ef565b600181019050610908565b5050565b601f82111561096b5761093c81610801565b61094584610816565b81016020851015610954578190505b61096861096085610816565b830182610907565b50505b505050565b600082821c905092915050565b600061098e60001984600802610970565b1980831691505092915050565b60006109a7838361097d565b9150826002028217905092915050565b6109c08261067f565b67ffffffffffffffff8111156109d9576109d8610480565b5b6109e382546107d0565b6109ee82828561092a565b600060209050601f831160018114610a215760008415610a0f578287015190505b610a19858261099b565b865550610a81565b601f198416610a2f86610801565b60005b82811015610a5757848901518255600182019150602085019450602081019050610a32565b86831015610a745784890151610a70601f89168261097d565b8355505b6001600288020188555050505b505050505050565b60006020820190508181036000830152610aa381846106c5565b90509291505056fea2646970667358221220c4206869aaf1e26a18d1ff3a8e6aba0c106592395d3cd5d3c889bd7882c3cfcf64736f6c63430008120033",
  "immutableReferences": {},
  "source": "// SPDX-License-Identifier: MIT\r\npragma solidity 0.8.18;\r\n\r\ncontract UserRegistry {\r\n    //    \r\n    struct User {\r\n        string name;\r\n        string data;\r\n    }\r\n\r\n    //    \r\n    mapping(address => User) public users;\r\n\r\n    //     \r\n    event UserRegistered(address indexed user, string name);\r\n\r\n    //   \r\n    function registerUser(string memory name) public {\r\n        require(bytes(name).length > 0, \"Name cannot be empty\");\r\n\r\n        User storage newUser = users[msg.sender];\r\n        newUser.name = name;\r\n\r\n        emit UserRegistered(msg.sender, name);\r\n    }\r\n\r\n    //      \r\n    function getUserData(address userAddress) public view returns (string memory, string memory) {\r\n        User storage user = users[userAddress];\r\n        return (user.name, user.data);\r\n    }\r\n}",
  "sourcePath": "C:\\Games\\\\)\\7 \\\\\\ 2\\pz2\\CreateSmartContract\\contracts\\UserRegistry.sol",
  "compiler": {
    "name": "solc",
    "version": "0.8.18+commit.87f61d96.Emscripten.clang"
  },
  "schemaVersion": "3.4.16",
  "updatedAt": "2023-10-25T08:48:32.142Z",
  "networkType": "ethereum",
  "devdoc": {
    "kind": "dev",
    "methods": {},
    "version": 1
  },
  "userdoc": {
    "kind": "user",
    "methods": {},
    "version": 1
  }
}